:100000000C9462000C948A000C948A000C948A0070
:100010000C948A000C948A000C948A000C948A0038
:100020000C948A000C948A000C948A000C948A0028
:100030000C948A000C948A000C948A000C948A0018
:100040000C94FE010C948A000C94B3030C948A0067
:100050000C948A000C948A000C948A000C948A00F8
:100060000C948A000C948A000000000024002700F1
:100070002A0000000000250028002B0000000000DE
:1000800023002600290004040404040404040202DA
:100090000202020203030303030301020408102007
:1000A0004080010204081020010204081020000012
:1000B0000007000201000003040600000000000029
:1000C0000000380511241FBECFEFD4E0DEBFCDBF46
:1000D00011E0A0E0B1E0E4E3FEE002C005900D9283
:1000E000AE30B107D9F711E0AEE0B1E001C01D922A
:1000F000A73FB107E1F710E0C4ECD0E004C02297BD
:10010000FE010E941407C23CD107C9F70E94F70103
:100110000C9418070C940000FC0188279927E89498
:1001200021912032E9F3293010F02E30C8F32B3220
:1001300041F02D3239F4689404C00E94DC00820F33
:10014000911D219120532A30C0F31EF49095819582
:100150009F4F0895009731F4DA018D919C9100979B
:1001600009F40EC0DC01FB013D912191222319F01D
:100170003217C9F3FACF332331F4DA011D921C92FE
:100180008827992708951197AF93BF93FB013D915D
:100190002191321771F4332321F48827992711977D
:1001A00002C01E921196FA01A193B0839F918F9184
:1001B0000895222369F7EACF7AE0979F902D879FD1
:1001C000802D910D1124089580915601813029F4DC
:1001D00084EE91E060E20E94A90581E080935601DF
:1001E00008951F93182F0E94E40084EE91E0612F80
:1001F0000E94A9051F9108951092560184EE91E086
:100200000E94B10508950F931F938C010E94E40092
:1002100084EE91E0B8010E9487061F910F91089526
:100220001F93CF93DF9310920E01C0E0D0E011E056
:100230002EC084EE91E00E94FD0480930F018A306D
:10024000E1F020911001309111018D3061F4E9014C
:10025000F901EE5EFE4F1082109211011092100112
:1002600010930E010AC0F901EE5EFE4F80832F5FEE
:100270003F4F309311012093100180911001909114
:100280001101CF9724F0109211011092100184EE09
:1002900091E00E94E904882361F6CE01DF91CF91BD
:1002A0001F91089580910E01882319F0813019F46F
:1002B00005C020E016C080E090E005C082E0809399
:1002C0000E0182E191E060E071E042E551E00E94C0
:1002D000AA00909355018093540120E0892B09F0E6
:1002E00021E0822F08950E945201882329F0E09195
:1002F0005401F0915501808108950E945201882394
:1003000019F420E030E007C080915401909155012C
:100310000E948C009C01C9010895FF920F931F93C6
:100320000E947301813619F08436F1F40FC00E94E7
:100330007D01F82E0E947D018C018F2D61E00E94CD
:10034000F7028F2DB8010E949E020EC00E947D010F
:10035000182F0E947D01082F812F61E00E94F70273
:10036000812F602F0E9417031F910F91FF90089516
:100370001F930E947301813679F08436D9F484E6A4
:100380000E94F10012E0812F0E9464030E94030189
:100390001F5F1E30C1F70CC081E60E94F10010E023
:1003A000812F0E9480020E9403011F5F1630C1F757
:1003B0000E94FC001F9108950E9410011816190652
:1003C00064F40E947301823719F0873731F403C057
:1003D0000E94B80108950E948D01089584EE91E075
:1003E00040E052EC61E070E00E94F00308950E944A
:1003F00046020E94EE010E94DC01FDCF1F920F9287
:100400000FB60F9211242F933F938F939F93AF9327
:10041000BF9380915B0190915C01A0915D01B091CF
:100420005E0130915F010196A11DB11D232F2D5F4B
:100430002D3720F02D570196A11DB11D20935F018E
:1004400080935B0190935C01A0935D01B0935E018A
:100450008091570190915801A0915901B0915A0192
:100460000196A11DB11D8093570190935801A0934F
:100470005901B0935A01BF91AF919F918F913F91D4
:100480002F910F900FBE0F901F901895789484B500
:10049000826084BD84B5816084BD85B5826085BD80
:1004A00085B5816085BDEEE6F0E080818160808366
:1004B000E1E8F0E0808182608083808181608083D8
:1004C000E0E8F0E0808181608083E1EBF0E0808112
:1004D00084608083E0EBF0E0808181608083EAE7E4
:1004E000F0E080818460808380818260808380816D
:1004F000816080838081806880831092C10008952C
:100500008F70909102019295990F990F907C982B82
:1005100090937C0080917A00806480937A0080912F
:100520007A0086FDFCCF2091780040917900942FCD
:1005300080E030E0282B392BC90108951F93CF9319
:10054000DF93182FEB0161E00E94F702E12FF0E04A
:10055000E255FF4F8491833051F480918000806890
:1005600080938000D0938900C09388003CC0843081
:1005700051F480918000806280938000D0938B0042
:10058000C0938A0030C0813039F4209729F184B5B6
:10059000806884BDC7BD27C0823039F42097E1F060
:1005A00084B5806284BDC8BD1EC0863041F4809190
:1005B000B00080688093B000C093B30014C087304F
:1005C00041F48091B00080628093B000C093B40089
:1005D0000AC0C038D1051CF4812F60E002C0812F11
:1005E00061E00E941703DF91CF911F910895282F9A
:1005F00030E0C90186569F4FFC0194912A573F4F26
:10060000F9018491882391F0E82FF0E0EE0FFF1FAD
:10061000E859FF4FA591B491662329F48C919095E8
:1006200089238C9308958C91892B8C930895482F5E
:1006300050E0CA0182559F4FFC012491CA018656A1
:100640009F4FFC0194914A575F4FFA013491332335
:10065000D1F1222331F1233021F4809180008F7772
:1006600005C0243031F4809180008F7D809380001C
:1006700018C0213019F484B58F7704C0223021F4DA
:1006800084B58F7D84BD0DC0263021F48091B000EB
:100690008F7705C0273029F48091B0008F7D80933B
:1006A000B000E32FF0E0EE0FFF1FEE58FF4FA591D3
:1006B000B491662329F48C91909589238C930895A5
:1006C0008C91892B8C930895682F70E0CB01825513
:1006D0009F4FFC012491CB0186569F4FFC01449112
:1006E0006A577F4FFB019491992319F420E030E081
:1006F00038C0222331F1233021F4809180008F779C
:1007000005C0243031F4809180008F7D809380007B
:1007100018C0213019F484B58F7704C0223021F439
:1007200084B58F7D84BD0DC0263021F48091B0004A
:100730008F7705C0273029F48091B0008F7D80939A
:10074000B000892F90E0880F991F84589F4FFC01BB
:10075000A591B4918C9120E030E0842311F021E048
:1007600030E0C90108951F920F920FB60F92112425
:100770002F933F934F935F936F937F938F939F93A9
:10078000AF93BF93EF93FF934091C600E091E001D8
:10079000F091E101CF01019660E870E00E94AE06A1
:1007A0009C018091E2019091E3012817390739F00B
:1007B000E05AFE4F40833093E1012093E001FF9126
:1007C000EF91BF91AF919F918F917F916F915F91C9
:1007D0004F913F912F910F900FBE0F901F90189542
:1007E0005F926F927F928F929F92AF92BF92CF92C1
:1007F000DF92EF92FF920F931F93CF93DF93EC0161
:100800003A014B01413482E458078FE0680780E0E9
:1008100078070CF07FC060E874E88EE190E0A401F6
:1008200093010E94E3062150304040405040CA01ED
:10083000B90122E030E040E050E00E94E3065901B7
:100840006A01A6019501209530954095509594E058
:10085000220F331F441F551F9A95D1F760E074E2B1
:1008600084EF90E00E94E306CA01B9012FEF30E067
:1008700040E050E00E948F06A40193010E94E3062D
:10088000C90181509F4F181619061CF4522E5A9414
:1008900003C055245394521A60E079E08DE390E050
:1008A000A40193010E94E306215030404040504093
:1008B000CA01B90122E030E040E050E00E94E306C6
:1008C000209530954095509583E0220F331F441FAB
:1008D000551F8A95D1F760E074E284EF90E00E94A2
:1008E000E306CA01B9012FEF30E040E050E00E947A
:1008F0008F06A40193010E94E306C90181509F4F16
:10090000181619061CF4822F815002C081E0821B48
:10091000851500F5E885F98581E090E00A8802C038
:10092000880F991F0A94E2F7808360E079E08DE3F5
:1009300090E0A40193010E94E30621503040404022
:100940005040CA01B90122E030E040E050E00E948E
:10095000E30604C0E885F98510829501EC81FD81EC
:100960003083EE81FF812083EA85FB85208141E091
:1009700050E0CA010E8402C0880F991F0A94E2F762
:10098000282B2083EA85FB852081CA010F8402C0C1
:10099000880F991F0A94E2F7282B2083EA85FB85AC
:1009A0008081088802C0440F551F0A94E2F7842B07
:1009B0008083DF91CF911F910F91FF90EF90DF9097
:1009C000CF90BF90AF909F908F907F906F905F90EF
:1009D0000895DC011296ED91FC911397E058FF4FBA
:1009E0008191919180589F4F20813181821B930B7F
:1009F00060E870E00E94AE060895CF93DF93DC01BB
:100A00001296ED91FC911397EF01CE57DF4F48817D
:100A10005981E058FF4F80819181E058F040841760
:100A2000950719F42FEF3FEF0CC0E40FF51F20815D
:100A3000CA01019660E870E00E94AE06998388833F
:100A400030E0C901DF91CF910895FC01A085B18507
:100A500021898C9190E0022E02C0959587950A9489
:100A6000E2F780FFF6CF0484F585E02D60830895DA
:100A700087E091E09093E5018093E40180E691E0C6
:100A80009093E7018093E60185EC90E09093E90173
:100A90008093E80184EC90E09093EB018093EA016D
:100AA00080EC90E09093ED018093EC0181EC90E07C
:100AB0009093EF018093EE0186EC90E09093F1012A
:100AC0008093F00184E08093F20183E08093F3014E
:100AD00087E08093F40185E08093F50181E08093C5
:100AE000F60108950F931F93CF93DF938C01EB01D1
:100AF00009C02196D801ED91FC910190F081E02D83
:100B0000C801099568816623A1F7DF91CF911F91F4
:100B10000F910895EF92FF920F931F93CF93DF935E
:100B20008C017B01EA010CC0D7016D917D01D801D8
:100B3000ED91FC910190F081E02DC801099521977C
:100B4000209791F7DF91CF911F910F91FF90EF9038
:100B50000895DC01ED91FC910190F081E02D099563
:100B600008950F931F938C01DC01ED91FC9101908E
:100B7000F081E02D6DE00995D801ED91FC91019097
:100B8000F081E02DC8016AE009951F910F91089549
:100B90002F923F924F925F926F927F928F929F928D
:100BA000AF92BF92CF92DF92EF92FF920F931F937B
:100BB000DF93CF93CDB7DEB7A0970FB6F894DEBF23
:100BC0000FBECDBF1C016A017B01411551056105B6
:100BD000710549F4DC01ED91FC910190F081E02D6B
:100BE00060E3099554C0882499245401422E552469
:100BF0006624772401E010E00C0F1D1F080D191D5D
:100C0000C701B601A30192010E94C106F8016083E9
:100C10000894811C911CA11CB11CC701B601A30141
:100C200092010E94C106C901DA016C017D01C11463
:100C3000D104E104F104F1F681E0E82EF12CEC0E90
:100C4000FD1EE80CF91C3E010894611C711CD501C5
:100C5000C4010197A109B1096C01C818D90814C0D1
:100C6000F601EE0DFF1D60816A3010F4605D01C079
:100C7000695CD101ED91FC910190F081E02DC10101
:100C800009950894E108F1086E147F0449F7A096CD
:100C90000FB6F894DEBF0FBECDBFCF91DF911F918D
:100CA0000F91FF90EF90DF90CF90BF90AF909F900B
:100CB0008F907F906F905F904F903F902F9008950E
:100CC000EF92FF920F931F93CF93DF93EC017A0182
:100CD0008B0177FF0FC0E881F9810190F081E02D51
:100CE0006DE2099510950095F094E094E11CF11CDB
:100CF000011D111DCE01B801A7012AE00E94C805FF
:100D0000DF91CF911F910F91FF90EF900895AB016C
:100D1000662757FD6095762F0E9460060895629FB2
:100D2000D001739FF001829FE00DF11D649FE00DE3
:100D3000F11D929FF00D839FF00D749FF00D659F44
:100D4000F00D9927729FB00DE11DF91F639FB00D43
:100D5000E11DF91FBD01CF011124089597FB092E54
:100D600007260AD077FD04D049D006D000201AF417
:100D7000709561957F4F0895F6F7909581959F4FF7
:100D80000895A1E21A2EAA1BBB1BFD010DC0AA1FCC
:100D9000BB1FEE1FFF1FA217B307E407F50720F0E4
:100DA000A21BB30BE40BF50B661F771F881F991F5F
:100DB0001A9469F760957095809590959B01AC01A8
:100DC000BD01CF01089597FB092E05260ED057FDD2
:100DD00004D0D7DF0AD0001C38F4509540953095E8
:100DE00021953F4F4F4F5F4F0895F6F790958095AF
:100DF000709561957F4F8F4F9F4F0895AA1BBB1B26
:100E000051E107C0AA1FBB1FA617B70710F0A61B0A
:100E1000B70B881F991F5A95A9F780959095BC012B
:100E2000CD010895EE0FFF1F0590F491E02D099478
:040E3000F894FFCF64
:0E0E340020000100000000250572058A05005F
:00000001FF
